{
  "_format": "hh-sol-artifact-1",
  "contractName": "NFTAuction",
  "sourceName": "contracts/NFTAuction.sol",
  "abi": [
    {
      "inputs": [
        {
          "internalType": "address",
          "name": "_nftContract",
          "type": "address"
        }
      ],
      "stateMutability": "nonpayable",
      "type": "constructor"
    },
    {
      "inputs": [
        {
          "internalType": "uint256",
          "name": "",
          "type": "uint256"
        }
      ],
      "name": "auctions",
      "outputs": [
        {
          "internalType": "address",
          "name": "seller",
          "type": "address"
        },
        {
          "internalType": "address",
          "name": "highestBidder",
          "type": "address"
        },
        {
          "internalType": "uint256",
          "name": "highestBid",
          "type": "uint256"
        },
        {
          "internalType": "bool",
          "name": "isActive",
          "type": "bool"
        },
        {
          "internalType": "uint256",
          "name": "endTime",
          "type": "uint256"
        }
      ],
      "stateMutability": "view",
      "type": "function"
    },
    {
      "inputs": [
        {
          "internalType": "uint256",
          "name": "tokenId",
          "type": "uint256"
        }
      ],
      "name": "bid",
      "outputs": [],
      "stateMutability": "payable",
      "type": "function"
    },
    {
      "inputs": [
        {
          "internalType": "uint256",
          "name": "tokenId",
          "type": "uint256"
        },
        {
          "internalType": "uint256",
          "name": "duration",
          "type": "uint256"
        }
      ],
      "name": "createAuction",
      "outputs": [],
      "stateMutability": "nonpayable",
      "type": "function"
    },
    {
      "inputs": [
        {
          "internalType": "uint256",
          "name": "tokenId",
          "type": "uint256"
        }
      ],
      "name": "endAuction",
      "outputs": [],
      "stateMutability": "nonpayable",
      "type": "function"
    },
    {
      "inputs": [],
      "name": "nftContract",
      "outputs": [
        {
          "internalType": "contract IERC721",
          "name": "",
          "type": "address"
        }
      ],
      "stateMutability": "view",
      "type": "function"
    }
  ],
  "bytecode": "0x608060405234801561001057600080fd5b506040516107cc3803806107cc83398101604081905261002f91610054565b600180546001600160a01b0319166001600160a01b0392909216919091179055610082565b600060208284031215610065578081fd5b81516001600160a01b038116811461007b578182fd5b9392505050565b61073b806100916000396000f3fe60806040526004361061004a5760003560e01c80630121683f1461004f578063454a2ab314610071578063571a26a014610084578063b9a2de3a14610118578063d56d229d14610138575b600080fd5b34801561005b57600080fd5b5061006f61006a3660046106c0565b610170565b005b61006f61007f3660046106a8565b610348565b34801561009057600080fd5b506100de61009f3660046106a8565b600060208190529081526040902080546001820154600283015460038401546004909401546001600160a01b03938416949290931692909160ff169085565b604080516001600160a01b0396871681529590941660208601529284019190915215156060830152608082015260a0015b60405180910390f35b34801561012457600080fd5b5061006f6101333660046106a8565b610496565b34801561014457600080fd5b50600154610158906001600160a01b031681565b6040516001600160a01b03909116815260200161010f565b6001546040516331a9108f60e11b81526004810184905233916001600160a01b031690636352211e9060240160206040518083038186803b1580156101b457600080fd5b505afa1580156101c8573d6000803e3d6000fd5b505050506040513d601f19601f820116820180604052508101906101ec919061067a565b6001600160a01b0316146102375760405162461bcd60e51b815260206004820152600d60248201526c2737ba1027232a1037bbb732b960991b60448201526064015b60405180910390fd5b6001546040516323b872dd60e01b8152336004820152306024820152604481018490526001600160a01b03909116906323b872dd90606401600060405180830381600087803b15801561028957600080fd5b505af115801561029d573d6000803e3d6000fd5b50506040805160a0810182523381526000602082018190529181019190915260016060820152915050608081016102d483426106e1565b905260009283526020838152604093849020825181546001600160a01b03199081166001600160a01b0392831617835592840151600183018054909416911617909155928101516002840155606081015160038401805460ff19169115159190911790556080015160049092019190915550565b6000818152602081905260409020600381015460ff1661039f5760405162461bcd60e51b815260206004820152601260248201527141756374696f6e206e6f742061637469766560701b604482015260640161022e565b806004015442106103e25760405162461bcd60e51b815260206004820152600d60248201526c105d58dd1a5bdb88195b991959609a1b604482015260640161022e565b806002015434116104235760405162461bcd60e51b815260206004820152600b60248201526a42696420746f6f206c6f7760a81b604482015260640161022e565b60018101546001600160a01b03161561047857600181015460028201546040516001600160a01b039092169181156108fc0291906000818181858888f19350505050158015610476573d6000803e3d6000fd5b505b6001810180546001600160a01b031916331790553460029091015550565b600081815260208190526040902060048101544210156104ec5760405162461bcd60e51b8152602060048201526011602482015270105d58dd1a5bdb881b9bdd08195b991959607a1b604482015260640161022e565b600381015460ff166105385760405162461bcd60e51b8152602060048201526015602482015274105d58dd1a5bdb88185b1c9958591e48195b991959605a1b604482015260640161022e565b60038101805460ff1916905560018101546001600160a01b0316156106095760018054908201546040516323b872dd60e01b81523060048201526001600160a01b039182166024820152604481018590529116906323b872dd90606401600060405180830381600087803b1580156105af57600080fd5b505af11580156105c3573d6000803e3d6000fd5b5050825460028401546040516001600160a01b03909216935080156108fc029250906000818181858888f19350505050158015610604573d6000803e3d6000fd5b505050565b60015481546040516323b872dd60e01b81523060048201526001600160a01b039182166024820152604481018590529116906323b872dd90606401600060405180830381600087803b15801561065e57600080fd5b505af1158015610672573d6000803e3d6000fd5b505050505050565b60006020828403121561068b578081fd5b81516001600160a01b03811681146106a1578182fd5b9392505050565b6000602082840312156106b9578081fd5b5035919050565b600080604083850312156106d2578081fd5b50508035926020909101359150565b6000821982111561070057634e487b7160e01b81526011600452602481fd5b50019056fea2646970667358221220ce632f2dd1f2ed3dda93c5b380db35b9dcae54014d3d81451d381efbc206baae64736f6c63430008040033",
  "linkReferences": {},
  "deployedLinkReferences": {}
}